:020000040800F2
:1000000068CB0020D943000801030008030300085F
:10001000070300080B0300080F030008000000009E
:1000200000000000000000000000000013030008B2
:10003000150300080000000017030008190300085A
:10004000F3430008F3430008F3430008F3430008B8
:10005000F3430008F3430008F3430008F3430008A8
:10006000F3430008F3430008F3430008F343000898
:10007000F3430008F3430008F3430008F343000888
:10008000F3430008F3430008F3430008F343000878
:10009000F3430008F3430008F3430008F343000868
:1000A000F3430008F3430008F3430008F343000858
:1000B000F3430008F3430008F3430008F343000848
:1000C000F3430008F3430008F3430008F343000838
:1000D000F34300084D430008632B0008F343000876
:1000E00089230008F3430008F3430008F3430008A2
:1000F000F3430008F3430008F3430008F343000808
:10010000F3430008F3430008F3430008F3430008F7
:10011000F3430008F3430008F3430008F11C000810
:10012000F3430008F3430008F3430008F3430008D7
:10013000F3430008F3430008F3430008F3430008C7
:10014000F3430008F3430008F3430008F3430008B7
:10015000F3430008F3430008F3430008F3430008A7
:10016000F3430008F3430008F3430008F343000897
:10017000F3430008F343000871090008F343000843
:10018000F3430008F343000800F002F800F05CF8C5
:100190000AA090E8000C82448344AAF10107DA45E2
:1001A00001D100F051F8AFF2090EBAE80F0013F0D8
:1001B000010F18BFFB1A43F001031847A484000085
:1001C000C48400000A444FF0000C10F8013B13F007
:1001D000070408BF10F8014B1D1108BF10F8015BA0
:1001E000641E05D010F8016B641E01F8016BF9D193
:1001F00013F0080F1EBF10F8014BAD1C0C1B09D1EA
:100200006D1E58BF01F801CBFAD505E014F8016B5B
:1002100001F8016B6D1EF9D59142D6D370470000ED
:100220000023002400250026103A28BF78C1FBD8FF
:10023000520728BF30C148BF0B6070471FB507F099
:100240005CFD1FBD10B510BD06F000FA1146FFF7AA
:10025000F5FF00F009F806F01EFA03B4FFF7F2FF0D
:1002600003BC04F00FF8000008B572B6A82003F034
:1002700087FF42F21071542001F0FAFC4FF47A71BA
:10028000542001F00EFD4FF6FF71542002F002F8E9
:1002900001F054FD00F020FD02F06CF902F05BFA71
:1002A000012026230022014600904FF4A06001F0B7
:1002B0004BF962B601E001F065FEFCE770B5FE2186
:1002C0000D4801F0DDF9002412E000250DE0C4EB3B
:1002D00004100A4901EB0010465DFD2E00DDFD26ED
:1002E0003146054801F0CCF96D1CF02DEFD3641CAC
:1002F000C82CEAD370BD00000044004094010020E7
:10030000704700BFFEE700BFFEE700BFFEE700BF8B
:10031000FEE7704770477047704700000CB500203B
:10032000019000907648006840F48030744908607D
:1003300000BF7348006800F4003000900198401C32
:100340000190009818B90198B0F5A04FF1D16C4810
:10035000006800F4003010B10120009001E000209E
:1003600000900098012846D165484030006840F070
:1003700080506349403108606248006840F4404062
:10038000604908605E48083000685D4908310860CF
:100390000846006840F4004008600846006840F4E1
:1003A000A05008605848091F0860081F006840F006
:1003B0008070091F086000BF5148006800F000709D
:1003C0000028F9D040F20570504908604C480830C8
:1003D000006820F003004A490831086008460068B8
:1003E00040F00200086000BF45480830006800F097
:1003F0000C000828F8D10CBD10B54548006840F441
:100400007000434908603E48006840F001003C49E4
:10041000086000203A4908310860394800683D49C1
:100420000840374908603C48091D0860081F0068FB
:1004300020F48020091F0860002031490C31086039
:10044000FFF76CFF4FF0006031498039086010BD44
:1004500070B500200022022300240221284D083517
:100460002D6805F00C0020B1042806D0082834D1EE
:1004700007E02A4D2A4E356033E02A4D284E35607C
:100480002FE01F4D2D1D2D68C5F380541C4D2D1DD3
:100490002D6805F03F0154B1224DB5FBF1F5184E22
:1004A000361D3668C6F3881605FB06F209E01B4DBB
:1004B000B5FBF1F5124E361D3668C6F3881605FBFE
:1004C00006F20F4D2D1D2D68C5F301456D1C6B0007
:1004D000B2FBF3F5124E356003E0104D104E35605F
:1004E00000BF00BF064D08352D68C5F303150E4E3D
:1004F000705D0B4D2D68C540094E356070BD000024
:10050000003802400070004008544007003C0240A0
:1005100088ED00E0FFFFF6FE103000240024F40018
:100520000000002000127A000400002010B50A200C
:1005300003F040FE10BD10B5FD48006820F44030C7
:10054000FB4908600846006840F4803008600846AF
:10055000006820F4404008600846006840F480408D
:1005600008608020088340000883FFF7DFFF8020B9
:10057000EF494883FFF7DAFF4FF48070EC49488376
:1005800010BD10B5EA48006820F44030E849086022
:100590000846006840F4803008600846006820F48F
:1005A000404008600846006840F4804008608020B1
:1005B0004883FFF7BBFF4FF48070DD490883FFF7E6
:1005C000B5FF8020DA490883FFF7B0FF10BD70B592
:1005D0000446D748006820F44040D54908600846E2
:1005E000006840F48040086000261BE004F08000B2
:1005F00018B18020CE49088302E08020CC4948838E
:100600006006040EFFF792FF4FF48070C84908831C
:10061000FFF78CFF4FF48070C5494883FFF786FFD2
:10062000701CC6B2082EE1DB8020C1490883084651
:10063000006820F440400860084600680860FFF742
:1006400075FF4FF48070BA490883FFF76FFFB84811
:10065000006900F080054FF48070B5494883FFF7CA
:1006600065FF284670BD2DE9F04180460D461646CF
:10067000002723E0FFF75FFF4046FFF7A8FF04468F
:10068000012C02D1FFF77DFF16E02846FFF79FFF00
:100690000446012C02D1FFF774FF0DE03046FFF74E
:1006A00096FF0446012C02D1FFF76BFF04E0FFF731
:1006B00068FF04B904E000BF781CC7B2C82FD9DBBB
:1006C00000BF2046BDE8F0811CB50121084604F0BA
:1006D00037FA4FF4C070009001208DF8040000201C
:1006E0008DF8060003208DF8050001208DF8070025
:1006F00069468F4803F086FF80208D4908834000BB
:1007000008831CBD10B5002405E0601C84B2142CC5
:1007100001D1002010BDA42212214220FFF7A3FF27
:100720000128F2D0002410E001E00020F2E7814827
:1007300000EB440042787F4810F814104220FFF785
:1007400092FF0128F1D0601C84B27B48007884427B
:10075000EADB0120DEE71CB5012004F0D2F801211C
:10076000084604F0EDF900220821714803F0D5FF96
:100770004FF48070009003208DF8050002208DF862
:10078000040000208DF8060001208DF8070069465E
:10079000674803F037FF4FF0A0614FF4C00004F04A
:1007A000B3F81CBD00B597B00121084604F0D9F993
:1007B0000121880504F0C4F90121132004F0C0F9D7
:1007C0004FF4CA60029002208DF80C0003208DF8CF
:1007D0000D0000208DF80E0001208DF80F0002A9F9
:1007E000534803F00FFF4FF47070029002A9534872
:1007F00003F008FF1320029002A9514803F002FF02
:100800000D2204214A4803F088FF0D2206214848A2
:1008100003F083FF0D220921454803F07EFF0D22DE
:100820000A21434803F079FF0D220021444803F0D8
:1008300074FF0D220121424803F06FFF0D220421B5
:100840003F4803F06AFF0D2206213C4803F065FF94
:100850000D220721394803F060FF0D220821374897
:1008600003F05BFF0D220921344803F056FF0020FE
:10087000ADF81000ADF812002020ADF81400802073
:10088000ADF816000020ADF81800ADF81A00ADF86C
:100890001C0004A804F028FD0121082004F0A4FD98
:1008A0000121102004F0A0FD01204E23024600216A
:1008B00000904FF4A06000F047FE012004F073FDAB
:1008C000012004F07FFD1F4804F0C8FD00BF1D4853
:1008D00004F0EDFE0028FAD14FF0007008901A489D
:1008E00009901A480A9000200B90F0200C900020EC
:1008F0000D904FF480600E9080000F90401010908B
:10090000C010119040021290002013900320149008
:1009100000201590169008A90A4804F041FE012015
:100920000B49087048700020888017B000BD000097
:10093000000002401A0000202A00002000040240AB
:100940000010024028640240280005509401002055
:100950001400002010B5FFF7B7FEFFF723FFFFF7E5
:10096000FAFEFFF7CFFE08B9002010BD0120FCE71A
:100970002C48006900F0080048B108202949486166
:100980002948007818B100202749888048702548F8
:10099000006900F0100068B3102022494861224825
:1009A000407838BB2048B0F90400C82823DA1F4833
:1009B000006820F001001D4908601B48B0F90400E0
:1009C000C0EB00101A4901EB001018490C31086007
:1009D0001648006840F0010014490860114800689A
:1009E00040F001000F4908600F488088401C00B2A9
:1009F0000D49888004E001200B49487000200870F0
:100A00000848006900F0010010B101200549486163
:100A10000448006900F0040010B104200149486155
:100A200070470000000005501400002028640240B8
:100A3000940100200821CA01F84B1A8380225A83AE
:100A400011E000F0800222B14FF48072F34B1A8360
:100A500003E04FF48072F14B5A838022EF4B1A83EC
:100A60005A834206100E0A00A1F10103D9B2E8D15F
:100A700070470821CA01E94B5A8380225A8311E04A
:100A800000F0800222B14FF48072E44B1A8303E03D
:100A90004FF48072E14B5A838022E04B1A835A83D1
:100AA0004206100E0A00A1F10103D9B2E8D1704745
:100AB00030B504460D4605F1B001C8B2FFF7D9FFC5
:100AC000102141EA1410FFF7D4FF04F00F0141F0A8
:100AD0000100FFF7CEFF30BD30B5002415E004F172
:100AE000B001C8B2FFF7C5FF0120FFF7C2FF102019
:100AF000FFF7BFFF002504E00020FFF79BFF681C05
:100B0000C5B2802DF8DB601CC4B2082CE7DB30BD19
:100B100009E041F6132100BF0A00A1F1010399B2D7
:100B2000FAD1421ED0B20028F3D1704730B5044646
:100B30002546E11704EB11710911A4EB0111C8B2AC
:100B4000FFF797FF2546E11704EB117109111031EA
:100B5000C8B2FFF78EFF30BD10B504462020FFF766
:100B600088FF2046FFF785FF10BD30B505460C46CF
:100B70002120FFF77EFF2846FFF77BFF2046FFF787
:100B800078FF30BD30B505460C462220FFF771FFD7
:100B90002846FFF76EFF2046FFF76BFF30BD10B50C
:100BA000044644F04000FFF764FF10BD10B5044652
:100BB0008120FFF75EFF2046FFF75BFF10BD10B5F9
:100BC00004468D20FFF755FF44F01000FFF751FF5A
:100BD00010BD10B5044644F0A000FFF74AFF10BD59
:100BE00010B5044644F0A400FFF743FF10BD10B554
:100BF000044644F0A600FFF73CFF10BD10B50446C4
:100C0000A820FFF736FF2046FFF733FF10BD10B5D1
:100C1000044644F0AE00FFF72CFF10BD10B50446AB
:100C200044F0B000FFF725FF10BD10B5044644F0B6
:100C3000C000FFF71EFF10BD10B50446D320FFF71C
:100C400018FF2046FFF715FF10BD10B50446D5204C
:100C5000FFF70FFF2046FFF70CFF10BD10B504464D
:100C6000D920FFF706FF2046FFF703FF10BD10B5A0
:100C70000446DA20FFF7FDFE44F00200FFF7F9FE1C
:100C800010BD10B50446DB20FFF7F3FE2046FFF74A
:100C9000F0FE10BD00B5E320FFF7EBFE00BD70B520
:100CA0000646002415E004F1B001C8B2FFF7E1FEEA
:100CB0000120FFF7DEFE1020FFF7DBFE002504E039
:100CC0003046FFF7B7FE681CC5B2802DF8DB601C0C
:100CD000C4B2082CE7DB70BD1CB54FF478600090FF
:100CE00001208DF8040003208DF8050000208DF808
:100CF00006008DF807000121102003F021FF69464E
:100D0000464803F07FFC80204449088348838000E4
:100D100048833220FFF7FCFE4FF400703F49088300
:100D2000AE20FFF7A6FE0020FFF7A3FE1020FFF77E
:100D3000A0FE4020FFF79DFE8120FFF79AFECF2006
:100D4000FFF797FEA120FFF794FEC820FFF791FE62
:100D5000A620FFF78EFEA820FFF78BFE3F20FFF7AF
:100D600088FED320FFF785FE0020FFF782FED52006
:100D7000FFF77FFE8020FFF77CFED920FFF779FE8A
:100D8000F120FFF776FEDA20FFF773FE1220FFF75F
:100D900070FEDB20FFF76DFE4020FFF76AFE20208B
:100DA000FFF767FE0220FFF764FE8D20FFF761FE6C
:100DB0001420FFF75EFEA420FFF75BFEA620FFF7DE
:100DC00058FEAF20FFF755FE0020FFF768FF002117
:100DD0000846FFF76DFE1CBDF0B505460C46002722
:100DE0007F2D01DC3F2C00DDF0BD2046E11704EB38
:100DF0005171C1F3C706E11704EB5171C910A4EB9F
:100E0000C10201219140CFB231462846FFF750FE82
:100E10003846FFF70FFE00BFE6E700000010024073
:100E20002DE9F04105460E4617464FF00008002414
:100E3000A7F1200000F0FF087A2D02DD0025701CCC
:100E4000C6B231462846FFF733FE002409E008EB1E
:100E50004801FE4A02EB4101085DFFF7EBFD601C13
:100E6000C4B2062CF3DBBDE8F0812DE9F043044663
:100E7000884615464FF000090026002720E0E85D6F
:100E8000203800F0FF097E2C04DD002408F1010069
:100E900000F0FF0841462046FFF70AFE002609E061
:100EA00009EB4901E94A02EB4101885DFFF7C2FD08
:100EB000701CC6B2062EF3DBA01DC4B2781CC7B2EC
:100EC000E85D0028DBD1BDE8F0832DE9F04305465D
:100ED0000E4617464FF000090024A04632E017F8EE
:100EE0000800203800F0FF09782D02DD0025701C75
:100EF000C6B231462846FFF7DBFD002407E004EBCD
:100F00000911D34A505CFFF795FD601CC4B2082C50
:100F1000F5DB701CC1B22846FFF7CAFD002408E0CB
:100F200004EB09110831CA4A505CFFF783FD601CCD
:100F3000C4B2082CF4DB05F10800C5B208F10100C9
:100F400000F0FF0817F808000028C8D1BDE8F083BA
:100F50002DE9F04385B0074688461446002625460D
:100F60001422BC49684605F027FBB14635B908F0A4
:100F7000FF01F8B23022FFF753FF73E0002D38DA9B
:100F80006D42644204E0701CC6B20A2095FBF0F585
:100F90000A20B5FBF0F100FB11500028F3D1002D21
:100FA000F1D12D208DF800000EE00A2094FBF0F125
:100FB00000FB11403030C2B23046711ECEB20DF887
:100FC00000200A2094FBF0F40A2094FBF0F100FBCF
:100FD00011400028E9D1002CE7D1002109F10100DE
:100FE0000DF8001008F0FF01F8B26A46FFF73DFF68
:100FF00038E004E0701CC6B20A2095FBF0F50A2028
:10100000B5FBF0F100FB11500028F3D1002DF1D118
:1010100030208DF80500701EC6B2B1460EE00A20E1
:1010200094FBF0F100FB11403030C2B23046711E2B
:10103000CEB20DF800200A2094FBF0F40A2094FBB5
:10104000F0F100FB11400028E9D1002CE7D100218C
:1010500009F101000DF8001008F0FF01F8B26A462E
:10106000FFF703FF05B0BDE8F0832DE9F0472DED54
:10107000068B82B080468946B0EE408AF0EE608AE8
:10108000154675A0006801904FF0010A002451EC4C
:10109000180B05F0F1FF09EE100A9FED700B53ECF1
:1010A000102B51EC180B06F025FA0ED130208DF8DC
:1010B000040009F0FF0108F0FF0001AAFFF7D5FEC8
:1010C00002B0BDEC068BBDE8F0879FED640B53ECDE
:1010D000102B51EC180B06F0A3FA79D251EC180B37
:1010E00005F0BEFF41EC180BB1EE490AB0EE409A94
:1010F000002704E00AEB8A004FEA400A7F1CAF4257
:10110000F8DB504606F061FA41EC1A0B53EC182B51
:1011100006F0C2FA41EC180B51EC180B05F0ACFFCD
:1011200009EE100A06E0641CB2EE040AC9EE000AD9
:10113000B0EE609ABDEEC90A10EE100A0A2190FBCB
:10114000F1F201FB12000028EDD1BDEEC90A10EE4C
:10115000100A0028E7D1A41C26461EE0601E711B61
:10116000491E884200D1641E51EC180B06F0FEF9AE
:101170000A2190FBF1F201FB12003030C1B2601E77
:10118000044601AA11549FED370B53EC102B51EC80
:10119000180B06F057F841EC180B51EC180B06F041
:1011A000E5F90A2190FBF1F201FB12000028D5D1EC
:1011B00051EC180B06F0DAF90028CFD12D208DF86C
:1011C000040035B90021701B401E01AA115489E0AA
:1011D00005E02E21701B401E01AA115482E0002759
:1011E00004E00AEB8A004FEA400A7F1CAF42F8DBBA
:1011F000504606F0EAF941EC1A0B53EC182B06F0B6
:101200004BFA41EC180B51EC180B05F035FF09EEC9
:10121000100A06E0641CB2EE040AC9EE000AB0EE41
:10122000609ABDEEC90A10EE100A0A2190FBF1F295
:1012300001FB12000028EDD1BDEEC90A10EE100A24
:101240000028E7D1641C26462FE000000083000838
:10125000107D000828850008200000000000000024
:10126000000000000000000000002440601E711B10
:10127000491E884200D1641E51EC180B06F076F925
:101280000A2190FBF1F201FB12003030C1B2601E66
:10129000044601AA11541FED0D0B53EC102B51EC19
:1012A000180B05F0CFFF41EC180B51EC180B06F0B2
:1012B0005DF90A2190FBF1F201FB12000028D5D163
:1012C00051EC180B06F052F90028CFD12DB90021AE
:1012D000701B401E01AA115404E02E21701B401EF9
:1012E00001AA115409F0FF0108F0FF0001AAFFF75D
:1012F000BCFD00BFE4E670B505460E46002431464D
:101300002846FFF7D5FB04E0FF20FFF793FB601CA6
:10131000C4B2032CF8DB70BD70B505460E46002440
:1013200031462846FFF7C4FB04E00020FFF782FBAC
:10133000601CC4B2032CF8DB70BD70B506460024F7
:1013400015E004F1B001C8B2FFF793FB0020FFF7EE
:1013500090FB1020FFF78DFB002504E03046FFF7DF
:1013600069FB681CC5B2802DF8DB601CC4B2082C78
:10137000E7DB70BD30B5002415E004F1B001C8B260
:10138000FFF777FB0020FFF774FB1020FFF771FBDE
:10139000002504E00020FFF74DFB681CC5B2802D3E
:1013A000F8DB601CC4B2082CE7DB30BD2DE9FF4F31
:1013B00084B081468A460020039002900698A0EBF4
:1013C00009050798A0EB0A06CDF80490CDF800A017
:1013D000002D01DD012705E00DB9002702E04FF0E7
:1013E000FF376D42002E02DD4FF0010806E016B90E
:1013F0004FF0000802E04FF0FF387642B54201DDC1
:101400002C4600E034464FF0000B21E0009AD1B2A8
:10141000019AD0B2FFF7E0FC0398284403900298A9
:10142000304402900398A04205DD0398001B03900E
:101430000198384401900298A04205DD0298001BF3
:1014400002900098404400900BF101001FFA80FBCD
:10145000601C8345DADD08B0BDE8F08FF0B50446C6
:101460000D4616461F462B46324629462046FFF7B4
:101470009DFF3B46224629462046FFF797FF3B4605
:10148000324639462046FFF791FF3B463246294611
:101490003046FFF78BFFF0BD2DE9F04306460F46BF
:1014A0009046002445460320A0EB480948E03A1B3B
:1014B000D1B2721BD0B2FFF78FFC3A1BD1B27219B6
:1014C000D0B2FFF789FC7A19D1B2321BD0B2FFF744
:1014D00083FC3A1BD1B2721BD0B2FFF77DFC7A1BA2
:1014E000D1B2321BD0B2FFF777FC3A19D1B27219E0
:1014F000D0B2FFF771FC7A1BD1B23219D0B2FFF72C
:101500006BFC7A19D1B23219D0B2FFF765FC3A19E7
:10151000D1B2721BD0B2FFF75FFC641CB9F1000FAF
:1015200003DAA000801D814404E0601B80000A30C3
:1015300081446D1E7A19D1B23219D0B2FFF74CFC3A
:10154000AC42B4DDBDE8F0832DE9F84307460C4614
:1015500015461E46DDF82080384602F05DFF8DF806
:101560000060E0B28DF80100E8B28DF802008DF85D
:101570000380684602F055FFBDE8F88310B596B0C9
:1015800004460121082003F0DBFA0121480403F09E
:1015900020FB07220521FC4803F0BFF807220621A3
:1015A000F94803F0BAF86020149002208DF8550035
:1015B00000208DF8560001208DF8570002208DF88C
:1015C000540014A9F04803F01DF84FF4E1301090D6
:1015D0000020ADF84400ADF84600ADF84800ADF885
:1015E0004C000C20ADF84A0010A9204603F0ADFCD9
:1015F0000121204603F031FD4021204603F015FE75
:10160000012240F22551204603F0DDFD012148056D
:1016100003F096FADD4803F021FF00BFDB4804F039
:1016200046F80028FAD14FF000600190201D02908A
:10163000D748039040200490252005900020069074
:101640004FF4806007900020089009900A904FF4B2
:1016500000300B9000200C9001200D9000200E9087
:101660000F9001A9C94803F09BFF0121C74803F06F
:10167000D1FF01228021204603F09CFD16B010BD51
:1016800070B504460D468021204603F0CEFD294664
:10169000204603F00DFD00BF8021204603F0B8FD79
:1016A0000028F9D08021204603F0BFFD70BD01461F
:1016B0008888C0F30800704710B5C1F30722B44B07
:1016C000223B03F81020012303EB4003B04C223CE3
:1016D000E15410BD70B506460C46002505E02178A2
:1016E0003046FFF7CDFF641C6D1C012DF7DB70BD8C
:1016F0002DE9F04107460D461646002404E0295D19
:101700003846FFF7BDFF241DB442F8D3BDE8F08191
:1017100070B50024FB219F48FFF7B2FF6D219D4863
:10172000FFF7AEFF25219B48FFF7AAFFFB346D347E
:10173000253400250BE096482238415D9548FFF797
:101740009FFF93482238405D0444681CC5B2222D97
:10175000F1DBE1B28F48FFF793FF70BD70B5FF2159
:101760008C48FFF78DFFFE218A48FFF789FFFF2194
:101770008848FFF785FFFE218648FFF781FF002498
:101780001AE000250DE0C4EB0410834901EB0010C2
:10179000465DFD2E00DDFD2631467E48FFF770FFD9
:1017A0006D1CF02DEFD3FE217A48FFF769FFFE2173
:1017B0007848FFF765FF641CC82CE2D3002570BD94
:1017C00010B50446AB217348FFF75AFFCD2171488D
:1017D000FFF756FFEF216F48FFF752FF28222146FF
:1017E0006C48FFF785FF10BD2DE9F04105460C461A
:1017F0001746002612216748FFF742FF232165485C
:10180000FFF73EFF34216348FFF73AFF05E030461B
:10181000761C295C5F48FFF733FF1E2E02DAA85DB5
:101820000028F4D1002C04DA2D215A48FFF728FFB4
:1018300064425A48844208DB94FBF0F0303000F0F8
:10184000FF0841465348FFF71BFF554884420EDB13
:10185000524894FBF0F100FB1140514990FBF1F02C
:10186000303000F0FF0841464A48FFF709FF4D4875
:1018700084420EDB4A4894FBF0F100FB11404949D9
:1018800090FBF1F0303000F0FF0841464148FFF78F
:10189000F7FE42F2107084420FDB424894FBF0F1F5
:1018A00000FB114042F2107190FBF1F0303000F07B
:1018B000FF0841463748FFF7E3FEB4F57A7F10DBB7
:1018C00042F2107094FBF0F100FB11404FF47A717A
:1018D00090FBF1F0303000F0FF0841462D48FFF753
:1018E000CFFE642C0FDB4FF47A7094FBF0F100FB19
:1018F0001140642190FBF1F0303000F0FF084146C8
:101900002448FFF7BDFE0A2C0EDB642094FBF0F1A7
:1019100000FB11400A2190FBF1F0303000F0FF088D
:1019200041461C48FFF7ACFE0A2094FBF0F100FB97
:101930001140303000F0FF0841461648FFF7A0FE86
:101940003C2239461348FFF7D3FEBDE8F08110B5BD
:10195000044664B189210F48FFF792FE9A210D4891
:10196000FFF78EFEAB210B48FFF78AFE0BE0AB21A1
:101970000848FFF785FEBC210648FFF781FECD2110
:101980000448FFF77DFE10BD000C0240A06002403D
:1019900052BE002000440040940100208096980030
:1019A00040420F00A0860100704710B5A84890ED96
:1019B000001BB0EE410AF0EE610A51EC100B05F08D
:1019C0005BFBA449C861A24890ED021BB0EE410A3E
:1019D000F0EE610A51EC100B05F04EFB9D490860DA
:1019E0009B4890ED041BB0EE410AF0EE610A51EC09
:1019F000100B05F041FB97494860954890ED061B98
:101A0000B0EE410AF0EE610A51EC100B05F034FB28
:101A10009049886010BD10B58D4890ED001BB0EE68
:101A2000410AF0EE610A51EC100B05F09FFD8A4966
:101A300009680860864890ED020B8748006880EDD1
:101A4000020B834890ED040B8348006880ED040B83
:101A50007F4890ED060B8048006880ED060B7C48BF
:101A600090ED081BB0EE410AF0EE610A51EC100B4C
:101A700005F07CFD794909680860754890ED0A0B0E
:101A80007648006880ED020B714890ED0C0B7348AE
:101A9000006880ED040B6E4890ED0E0B6F480068F7
:101AA00080ED060B10BD10B5694890ED001BB0EE3F
:101AB000410AF0EE610A51EC100B05F0DDFA6849BD
:101AC000C861634890ED021BB0EE410AF0EE610A76
:101AD00051EC100B05F0D0FA614908605C4890EDBC
:101AE000041BB0EE410AF0EE610A51EC100B05F058
:101AF000C3FA5B494860564890ED061BB0EE410AB8
:101B0000F0EE610A51EC100B05F0B6FA544988600A
:101B10004F4890ED081BB0EE410AF0EE610A51EC1F
:101B2000100B05F0A9FA4F49C861494890ED0A1B0E
:101B3000B0EE410AF0EE610A51EC100B05F09CFA90
:101B400048490860424890ED0C1BB0EE410AF0EEA7
:101B5000610A51EC100B05F08FFA424948603C488D
:101B600090ED0E1BB0EE410AF0EE610A51EC100B45
:101B700005F082FA3B49886010BD10B5344890EDFD
:101B8000001BB0EE410AF0EE610A51EC100B05F0BB
:101B900073FA3549C8612E4890ED021BB0EE410A38
:101BA000F0EE610A51EC100B05F066FA2E49086060
:101BB000274890ED041BB0EE410AF0EE610A51ECAB
:101BC000100B05F059FA28494860214890ED061B92
:101BD000B0EE410AF0EE610A51EC100B05F04CFA40
:101BE000214988601A4890ED081BB0EE410AF0EEDA
:101BF000610A51EC100B05F03FFA1C49C86114480A
:101C000090ED0A1BB0EE410AF0EE610A51EC100BA8
:101C100005F032FA154908600D4890ED0C1BB0EE46
:101C2000410AF0EE610A51EC100B05F025FA0F495C
:101C30004860074890ED0E1BB0EE410AF0EE610AD5
:101C400051EC100B05F018FA0849886010BD00002F
:101C500080BE002008BE00202C00002030000020A4
:101C600078BD00209CBD0020C0BD0020E4BD002048
:101C70003EB504460D460121082002F0AAFF019559
:101C8000A0B2ADF800000020ADF80800ADF80200E9
:101C90006946274803F0EBFE0121254803F070FF59
:101CA0003EBD7FB504460D460121202002F091FF84
:101CB0000295A0B2ADF804000020ADF80C00ADF81C
:101CC000060001A91B4803F0D2FE01221146194863
:101CD00004F06EFB0121174803F052FF0120372367
:101CE0000022022100904FF4A060FFF72DFC7FBD81
:101CF00010481030008800F00100B8B10D480C30D9
:101D0000008800F0010088B10B480078322802DB1F
:101D10000020094908700849087808460078401CE6
:101D200008704FF6FE7003491031088070470000BC
:101D3000000C004000140040870000201CB5012169
:101D4000042002F0FDFE0F20009000208DF804001A
:101D500003208DF8050001208DF8070069468448AE
:101D600002F050FC3020009001208DF8040000208B
:101D70008DF8060003208DF8050001208DF807007E
:101D800069467B4802F03EFC0121082002F0D8FEA3
:101D90000320009001208DF8040000208DF806003B
:101DA00003208DF8050001208DF807006946714871
:101DB00002F028FC1CBD30B1012812D002281ED030
:101DC000032838D129E002216A4A1A321180012100
:101DD000921E11801021664A183211802021118034
:101DE0002AE00121634A1A3211800221921E1180D9
:101DF00010215F4A18321180202111801CE020211F
:101E00005B4A1A3211801021921E11800121594A19
:101E100018321180022111800EE01021544A1A322A
:101E200011802021921E11800121524A1832118006
:101E30000221118000E000BF00BF704701B59DF88E
:101E400001009DF800104C4A02EB410148709DF8DA
:101E5000000002F8100008BDF8B5002484E0A0B22C
:101E6000FFF7A9FF42481030006800F00F000F286C
:101E70005DDA0127002557E03D481030006800F08A
:101E80000F003840B0BB780047B2032000EB84005D
:101E9000401B3A4951F82000401C032101EB84010A
:101EA000491B364A42F82100032000EB8400401B06
:101EB000114651F820000A2803D84FF0FF350127BA
:101EC00030E0002606E000202B4901EB4601487077
:101ED000701C46B2102EF6DB032000EB8400401B82
:101EE000C0B28DF8000001208DF801000098FFF7C6
:101EF000A5FF16E0FFE7032000EB8400401BC0B203
:101F00008DF8000000208DF80100032101EB840111
:101F1000491B1A4A42F821000098FFF78FFF78000A
:101F200047B200BF681C45B2042DA5DB1AE0144877
:101F30000078401C40B212490870084690F9000031
:101F400028280FDB00200870002609E000200A493D
:101F500001EB46014870094941F82600701C46B261
:101F6000102EF3DB601C44B2042CFFF678AFF8BDF2
:101F700000080240000C024034BF002054BF002083
:101F80009800002070B50025FFF766FF002426E0CA
:101F9000A14800EB4400407801280FD19F48007809
:101FA00001280BD100209D4908709B4911F814109D
:101FB0009B4A52F82100804700F04FFC964800EB06
:101FC0004400407848B9681CC5B2102D05D10020E6
:101FD00094490870012091490870601CC4B2102C0B
:101FE000D6DB70BD10B5FFF7C5F98FA200210846FA
:101FF000FEF73BFF10BD10B5FFF7BCF98BA2002127
:102000000846FEF732FF10BD10B5FFF7B3F988A2FE
:1020100000210846FEF729FF10BD10B5FFF7AAF909
:1020200084A200210846FEF720FF10BD10B5FFF77F
:10203000A1F981A200210846FEF717FF10BD10B5D7
:10204000FFF798F97DA200210846FEF70EFF10BDAC
:1020500010B5FFF78FF97AA200210846FEF705FFB9
:1020600010BD10B5FFF786F976A200210846FEF7ED
:10207000FCFE10BD10B5FFF77DF973A200210846E4
:10208000FEF7F3FE01206749087010BD10B5FFF799
:1020900071F970A200210846FEF7E7FE02206149AF
:1020A000087010BD10B5FFF765F96DA20021084654
:1020B000FEF7DBFE03205B49087010BD10B5FFF78B
:1020C00059F969A200210846FEF7CFFE10BD10B5F0
:1020D000FFF750F965A200210846FEF7C6FE04206E
:1020E0005049087010BD10B5FFF744F961A20021F6
:1020F0000846FEF7BAFE10BD10B5FFF73BF95EA229
:1021000000210846FEF7B1FE10BD10B5FFF732F909
:102110005AA200210846FEF7A8FE10BD2DE9F041A5
:1021200005460E464FF0000800270024FFF722F96D
:102130000F2E27D2DFE806F0080B0E2626112626E2
:1021400014171A261D2023004FF007081CE04FF03B
:10215000080819E04FF0090816E04FF0000813E0F6
:102160004FF0010810E04FF002080DE04FF00308B7
:102170000AE04FF0040807E04FF0050804E04FF0D4
:10218000060801E0BDE8F08100BF3D480078052861
:102190000ADA3C483A49097800F801803848007862
:1021A000401C3749087011E0002406E05F203649E2
:1021B000085534490855601CC4B2052CF6DB0020D4
:1021C0002F4908700021681E304A115400240CE089
:1021D0002C48005D5F2806D02A48005D30302A492F
:1021E0000855781CC7B2601CC4B2052CF0DB002077
:1021F00025490855681E25490F54234A00210846E1
:10220000FEF733FE00BFBDE710B504462146204867
:102210000078FFF783FF10BD34BF0020F0000020DE
:10222000B000002094BF00203700000038000000FC
:1022300039000000430000002A00000030000000C8
:102240002E00000044000000315F466C795F52654B
:1022500061647900325F466C795F53746F7000007F
:10226000335F52697365000041000000345F4C61C8
:102270006E640000350000003600000042000000DF
:10228000AB0000209D000020A2000020A80000203C
:10229000AF0000203EB504460D460121802002F02B
:1022A00098FC0195A0B2ADF800000020ADF8080040
:1022B000ADF8020069469B4803F0D9FB012199481B
:1022C00003F05EFC3EBD00B585B00121102002F098
:1022D00037FC0121880302F08DFC042003900120CB
:1022E0008DF8100000208DF8120003208DF81100E9
:1022F00001208DF8130003A98B4802F083F9042113
:10230000894802F0FDF90820039000208DF81000A4
:1023100003208DF8110001208DF8130003A98248D5
:1023200002F070F90321042002F06FFD08200190F3
:1023300000208DF8080010208DF8090001208DF88C
:102340000A0001A803F06CFA4FF4A06002F064F8F0
:1023500009208DF8000000208DF8010001208DF883
:1023600002008DF80300684602F05BF805B000BD7E
:1023700010B501206D490860142001F01BFF0020FA
:102380006B49C1F8880210BD70B5002400250026F5
:102390004FF4006003F0AAFA00284FD04CE06548E3
:1023A000007918B100206349087146E04FF40061DC
:1023B000614802F089F901283AD100F0EDFA0446AB
:1023C000FA2C00D339E0C82C03D3FA2C01D2012512
:1023D0001DE00A2C03D3322C01D2002617E0322C48
:1023E00003D3642C01D2012611E0642C0FD3C82C36
:1023F0000DD801205149087051480078401C5049BF
:10240000087050480078401C4E49087015E0012DB6
:102410000ED14D48006840004B49086008460068EE
:102420003044086000204649087001204549087082
:102430004FF4006003F065FAB1E700BF70BD10B55E
:102440002DED0E8B4148006805F0BFF841EC1A0BEA
:102450009FED3F0B53EC102B05F01EF941EC190BCF
:102460009FED3D0B53EC102B04F0ECFE41EC180BF0
:1024700004F002FE00EE100ABDEEC00A384880EDFE
:10248000000A3848006805F0C7FB41EC1C0B9FEDC3
:10249000360B53EC102B04F0D5FE41EC1B0BB0EEC9
:1024A0004B0AF0EE6B0A04F017F9B0EE409AF0EE2A
:1024B000609A2F48006805F0AFFB41EC1E0B9FEDC2
:1024C0002A0B53EC102B04F0BDFE41EC1D0BB0EEBB
:1024D0004D0AF0EE6D0A04F0FFF8B0EE40BAF0EEEF
:1024E00060BA1F4890ED000AB8EEC00A01F05AFD2C
:1024F00010EE104A204605F08FFB41EC1C0B53EC0C
:102500001B2B05F0C9F841EC1A0B53EC192B05F005
:10251000C3F841EC180B05F029F811490860BDEC2F
:102520000E8B10BD001C0040001002408802424289
:1025300000004242D4BF00200004024011010020EC
:1025400010010020000100200C010020F8000020F4
:102550003E7958A8355D314000000000000024405D
:10256000FC00002018010020FBEB1516DCA54C40F8
:10257000140100201CB50121022002F0E1FA012122
:10258000082002F0DDFA4FF43040009001208DF871
:10259000040000208DF8060003208DF805000020BF
:1025A0008DF807006946BC4802F02CF84FF4006033
:1025B00000906946B84802F025F84FF4804000903A
:1025C00000208DF804008DF8060003208DF805002A
:1025D00000208DF807006946AF4802F013F84FF469
:1025E0008050AD49183108804010891C0880800057
:1025F0000880FA2001F026FE1CBD002123E000F037
:1026000080022AB14FF40042A34B18331A8004E031
:102610004FF40042A04B1A331A804206100E4FF4BA
:1026200000529D4B18331A809B4A1032126802F4F4
:1026300080420AB1421CD0B24FF40052964B1A337A
:102640001A804A1CD1B20829D9DB704770B50546FB
:102650000C464FF4805090491A3108802846FFF705
:10266000CCFF06462046FFF7C8FF4FF480508A494A
:1026700018310880304670BD30B504464FF48050A4
:1026800085491A3108802046FFF7B7FF0020FFF781
:10269000B4FF05464FF480507F4918310880284622
:1026A00030BD2DE9F04107460C4615464FF48050E9
:1026B00079491A3108803846FFF79FFF8046002687
:1026C00005E014F8010BFFF798FF701CC6B2AE428C
:1026D000F7DB4FF480507049183108804046BDE860
:1026E000F0812DE9F04107460D4616464FF4805023
:1026F00069491A3108803846FFF77FFF8046002479
:1027000005E00020FFF779FF2855601CC4B2B442F1
:10271000F7DB4FF480506049183108804046BDE82F
:10272000F08130B5044600250720FFF7A5FF5B497F
:1027300008700846007800F0400028B120222146A9
:102740006120FFF7CEFF0125544801782720FFF7CD
:102750007DFF284630BD00B54FF400604E491A3168
:1027600008800021E120FFF771FF05224C4930204D
:10277000FFF797FF05224A492A20FFF792FF012120
:102780002120FFF763FF01212220FFF75FFF1A21BD
:102790002420FFF75BFF28212520FFF757FF0721A3
:1027A0002620FFF753FF20213120FFF74FFF0E2196
:1027B0002020FFF74BFF4FF40060374918310880A5
:1027C00000BD10B504464FF4006033491A3108804B
:1027D000052233492A20FFF764FF0021E120FFF79B
:1027E00035FF20222146A020FFF75BFF0E2120208D
:1027F000FFF72CFF4FF4006027491831088010BD07
:1028000000B54FF4006024491A3108800021E2200D
:10281000FFF71CFF052222492A20FFF742FF012172
:102820002120FFF713FF01212220FFF70FFF2821AE
:102830002520FFF70BFF20213120FFF707FF07219D
:102840002620FFF703FF0F212020FFF7FFFE4FF4A4
:10285000006011491831088000BD00B51148FFF72C
:10286000B0FF0720FFF708FF0C4908700846007802
:1028700000F0200020B1084601782720FFF7E6FE8F
:102880000648007800F0100020B1044801782720A5
:10289000FFF7DCFE00BD0000000402400101002043
:1028A0000201002094BF00203EB504460D460121E0
:1028B000080202F08EF90195A0B2ADF800000020E8
:1028C000ADF80800ADF802006946684803F0CFF89B
:1028D0000121664803F054F93EBD00B585B00121E1
:1028E000022002F02DF90121880302F083F94FF450
:1028F0000060039000208DF8100003208DF8110077
:1029000001208DF8130003A9594801F07BFE0B212B
:10291000012002F07AFA4FF40060019000208DF857
:10292000080010208DF8090001208DF80A0001A888
:1029300002F076FF4FF4E06001F06EFD28208DF884
:10294000000000208DF8010001208DF802008DF8B4
:102950000300684601F065FD05B000BD30B545488F
:102960000068010E43480068C0F3074441480088EE
:10297000C0F307223F48037800203F4D2870E04312
:10298000C0B2884206D129B9D843C0B2904201D121
:10299000104630BD0020FCE710B5002408E0601CA4
:1029A000C4B2142001F006FCFA2C01D1204610BD5F
:1029B0004FF400612E4801F087FE0028EFD1204639
:1029C000F5E710B52C48007801284DD1FFF7C6FF78
:1029D000C4B25A2C42D017DC302C3AD00BDC102C6D
:1029E0003AD003DC4CB3022C3CD12AE0182C31D075
:1029F000222C37D124E0382C2FD0422C2FD04A2C37
:102A00002ED0522C2ED12CE0A82C1DD00CDC902CDA
:102A10001BD004DC682C19D07A2C23D11BE0982C15
:102A200015D0A22C1ED109E0B02C11D0C22C09D097
:102A3000E02C08D0E22C15D101E014E013E012E004
:102A400011E010E00FE00EE00DE00CE00BE00AE01A
:102A500009E008E007E006E005E004E003E002E04A
:102A600001E000E000BF00BF10BD000000200040FA
:102A7000000402400C0100201101002010B58AB0B2
:102A800004460121480402F0A4F80121084602F09E
:102A900057F826208DF80C0002208DF80D0000203C
:102AA0008DF80E0001208DF80F0003A801F0B9FC8D
:102AB00007220521584801F030FE0722062156481A
:102AC00001F02BFE2020019002208DF808008DF8E7
:102AD000090000208DF80A0001208DF80B0001A9E3
:102AE0004D4801F08FFD4020019002208DF8080034
:102AF0008DF8090001208DF80A0000208DF80B00E8
:102B000001A9454801F07EFD06940020ADF81C00A7
:102B1000ADF81E00ADF82000ADF824000C20ADF893
:102B200022000020ADF81000ADF812004FF4007044
:102B3000ADF814000020ADF8160006A9374802F0E1
:102B400004FA04A9354802F072FA012240F2255134
:102B5000324802F038FB0121304802F07EFA0AB018
:102B600010BD10B52D48008800F0080018B12B48A2
:102B7000001D0088C4B240F22551284802F05EFBD7
:102B800058B140F22551254802F093FB2348001D1F
:102B90000088C4B2204601F079F940F227711F483D
:102BA00002F04CFBC0B11E4801780078401C1C4A62
:102BB00010701C48405C1949091D088010460078B7
:102BC00019490978884207D114480C30008820F050
:102BD000800012490C31088010BD70B505460E46C4
:102BE00000240AE0295D104802780078401C0E4B52
:102BF00018700C488154601CC4B2B442F2DB074820
:102C00000C30008800F0800028B9012240F22771C2
:102C1000024802F0D8FA70BD000C024000440040A7
:102C20003C01002070C100203D01002070B5054628
:102C30000C462146F948FFF7D0FF70BD7FB5002450
:102C400000260025AA222146641CF448425421464D
:102C5000641C4254F1222146641C42540022214645
:102C6000641C42549DF801202146641C42549DF886
:102C700000202146641C42549DF805202146641C16
:102C800042549DF804202046611CCCB2E3490A540A
:102C90009DF809202046611CCCB2E0490A549DF8F9
:102CA00008202046611CCCB2DC490A549DF80D2056
:102CB0002046611CCCB2D9490A549DF80C2020460C
:102CC000611CCCB2D5490A549DF821202046611CD4
:102CD000CCB2D2490A549DF820202046611CCCB2C7
:102CE000CE490A549DF825202046611CCCB2CB4920
:102CF0000A549DF824202046611CCCB2C7490A54CE
:102D00009DF829202046611CCCB2C4490A549DF884
:102D100028202046611CCCB2C0490A549DF82D20C1
:102D20002046611CCCB2BD490A549DF82C20204697
:102D3000611CCCB2B9490A549DF831202046611C6F
:102D4000CCB2B6490A549DF830202046611CCCB262
:102D5000B2490A54201FC87000BF05E0AF48405D6B
:102D60003044C6B2681CC5B2A542F7DB2046611CE0
:102D7000CCB2AA490E542146A848FFF757FF7FBDA1
:102D8000F0B52DED0A8B81B00646B0EE408AF0EE2C
:102D9000608AB0EE419AF0EE619AB0EE42AAF0EE8F
:102DA00062AAB0EE43BAF0EE63BAB0EE44CA0024B1
:102DB00000270025AA222146641C98484254214637
:102DC000641C425406F10F00C2B22146641C9348B1
:102DD000425400222146641C42549FED910A28EE81
:102DE000000ABDEEC00A10EE100A00B200909DF875
:102DF00001202146641C894842549DF80020214648
:102E0000641C42549FED860A28EE800ABDEEC00A7B
:102E100010EE100A00B200909DF801202146641CBB
:102E20007E4842549DF800202046611CCCB27B496C
:102E30000A549FED7B0A29EE000ABDEEC00A10EE8F
:102E4000100A00B200909DF801202046611CCCB20F
:102E500072490A549DF800202046611CCCB26F498B
:102E60000A549FED6F0A29EE800ABDEEC00A10EEEB
:102E7000100A00B200909DF801202046611CCCB2DF
:102E800066490A549DF800202046611CCCB2634973
:102E90000A549FED630A2AEE000ABDEEC00A10EE46
:102EA000100A00B200909DF801202046611CCCB2AF
:102EB0005A490A549DF800202046611CCCB257495B
:102EC0000A549FED570A2AEE800ABDEEC00A10EEA2
:102ED000100A00B200909DF801202046611CCCB27F
:102EE0004E490A549DF800202046611CCCB24B4943
:102EF0000A549FED4B0A2BEE000ABDEEC00A10EEFD
:102F0000100A00B200909DF801202046611CCCB24E
:102F100042490A549DF800202046611CCCB23F492A
:102F20000A549FED3F0A2BEE800ABDEEC00A10EE58
:102F3000100A00B200909DF801202046611CCCB21E
:102F400036490A549DF800202046611CCCB2334912
:102F50000A549FED330A2CEE000ABDEEC00A10EEB3
:102F6000100A00B200909DF801202046611CCCB2EE
:102F70002A490A549DF800202046611CCCB22749FA
:102F80000A54201FC87000BF05E02448405D384443
:102F9000C7B2681CC5B2A542F7DB2046611CCCB2A3
:102FA0001E490F5421461D48FFF740FE01B0BDECFD
:102FB0000A8BF0BD2DE9F84306460F460024A046D3
:102FC0000025AA222146641C144842542146641C50
:102FD000425405222146641C425400222146641CAE
:102FE000425400969DF801202146641C42549DF8ED
:102FF00000202146641C425400979DF80120214680
:10300000641C42549DF800202046611CCCB2034948
:103010000A54201FC87000BF0BE000007EC20020D1
:1030200000007A44FE48405D404400F0FF08681C00
:10303000C5B2A542F6DB2046611CCCB2F84901F8C6
:1030400000802146F648FFF7F1FDBDE8F8837FB523
:10305000002400260025AA222146641CF048425480
:103060002146641C425406222146641C425400221C
:103070002146641C42549DF801202146641C4254A0
:103080009DF800202146641C42549DF805202146ED
:10309000641C42549DF804202046611CCCB2E049D7
:1030A0000A549DF809202046611CCCB2DC490A5420
:1030B0009DF808202046611CCCB2D9490A549DF8DD
:1030C0000D202046611CCCB2D5490A549DF80C2035
:1030D0002046611CCCB2D2490A549DF821202046DA
:1030E000611CCCB2CE490A549DF820202046611CB8
:1030F000CCB2CB490A549DF825202046611CCCB2A5
:10310000C7490A549DF824202046611CCCB2C4490A
:103110000A549DF829202046611CCCB2C0490A54AB
:103120009DF828202046611CCCB2BD490A549DF868
:103130002D202146601CC4B2B94842549DF82C2071
:103140002046611CCCB2B6490A54201FC87000BF8B
:1031500005E0B348405D3044C6B2681CC5B2A54224
:10316000F7DB2046611CCCB2AD490E542146AC4879
:10317000FFF75CFD7FBD7FB5002400260025AA2255
:103180002146641CA64842542146641C4254032232
:103190002146641C425400222146641C42549DF87E
:1031A00001202146641C42549DF800202146641CE5
:1031B00042549DF805202146641C42549DF8042089
:1031C0002046611CCCB296490A549DF8092020463D
:1031D000611CCCB292490A549DF808202046611C1B
:1031E000CCB28F490A549DF80D202046611CCCB208
:1031F0008B490A549DF80C202046611CCCB28849AA
:103200000A549DF821202046611CCCB284490A54FE
:103210009DF820202046611CCCB281490A549DF8BB
:1032200025202046611CCCB27D490A549DF82420FB
:103230002046611CCCB27A490A549DF829202046C8
:10324000611CCCB276490A549DF828202046611CA6
:10325000CCB273490A549DF82D202046611CCCB293
:103260006F490A549DF82C202046611CCCB26C4951
:103270000A549DF831202046611CCCB268490A549A
:103280009DF830202046611CCCB265490A549DF857
:1032900035202046611CCCB261490A549DF8342087
:1032A0002046611CCCB25E490A54201FC87000BF82
:1032B00005E05B48405D3044C6B2681CC5B2A5421B
:1032C000F7DB2046611CCCB255490E5421465448C8
:1032D000FFF7ACFC7FBD2DE9F84F06460F46904640
:1032E0009946DDF828B00024A2460025AA222146EE
:1032F000641C4B4842542146641C4254022221461D
:10330000641C425400222146641C425400969DF8DD
:1033100001202146641C42549DF800202146641C73
:10332000425400979DF801202146641C42549DF8A8
:1033300000202046611CCCB239490A54CDF80080E7
:103340009DF801202046611CCCB235490A549DF8F5
:1033500000202046611CCCB231490A54CDF80090BF
:103360009DF801202046611CCCB22D490A549DF8DD
:1033700000202046611CCCB229490A54CDF800B087
:103380009DF801202046611CCCB225490A549DF8C5
:1033900000202046611CCCB221490A540B980090B1
:1033A0009DF801202046611CCCB21D490A549DF8AD
:1033B00000202046611CCCB219490A540C98009098
:1033C0009DF801202046611CCCB215490A549DF895
:1033D00000202046611CCCB211490A540D9800907F
:1033E0009DF801202046611CCCB20D490A549DF87D
:1033F00000202046611CCCB209490A540E98009066
:103400009DF801202046611CCCB205490A549DF864
:1034100000202046611CCCB201490A54201F01E063
:103420007EC20020C87000BF06E0F748405D5044EF
:1034300000F0FF0A681CC5B2A542F6DB2046611CFD
:10344000CCB2F14901F800A02146EF48FFF7EEFBAE
:10345000BDE8F88F2DE9F0432DED048B83B0B0EE7D
:10346000408AF0EE608AB0EE419A06460F469046DA
:1034700000240196A1460025AA222146641CE248A8
:1034800042542146641C425401222146641C425489
:1034900000222146641C42549FEDDC0A28EE000AFB
:1034A000BDEEC00A10EE100A00B202909DF809208D
:1034B0002146641CD44842549DF808202146641CCF
:1034C00042549FEDD20A28EE800ABDEEC00A10EEEB
:1034D000100A00B202909DF809202146641CCA48D7
:1034E00042549DF808202046611CCCB2C6490A54BB
:1034F0009FEDC60A29EE000ABDEEC00A10EE100AC2
:1035000000B202909DF809202046611CCCB2BE4951
:103510000A549DF808202046611CCCB2BA490A54CE
:103520009DF807202046611CCCB2B7490A549DF88B
:1035300006202046611CCCB2B3490A549DF80520F0
:103540002046611CCCB2B0490A549DF804202046A4
:10355000611CCCB2AC490A542046611CCCB2AA49C9
:103560000F542046611CCCB2A74901F80080201FEF
:10357000C87000BF06E0A448405D484400F0FF0961
:10358000681CC5B2A542F6DB2046611CCCB29E4940
:1035900001F8009021469C48FFF748FB03B0BDECC2
:1035A000048BBDE8F0832DE9FF4106460024002787
:1035B0000025AA222146641C934842542146641CDB
:1035C000425400222146641C42542146641C425449
:1035D0002146641C46549DF805202146641C425433
:1035E0009DF804202146641C42549DF80920204681
:1035F000611CCCB284490A549DF808202046611C05
:10360000CCB281490A549DF80D202046611CCCB2F1
:103610007D490A549DF80C202046611CCCB27A49A1
:103620000A549DF829202046611CCCB276490A54E0
:103630009DF828202046611CCCB273490A54201FF3
:10364000C87000BF05E07048405D3844C7B2681CD0
:10365000C5B2A542F7DB2046611CCCB26A490F54C3
:1036600021466948FFF7E2FABDE8FF8110B586B050
:10367000674800786749097890FBF1F201FB120175
:1036800064480078401E814202D10120624988705E
:103690005F4800786149097890FBF1F201FB120163
:1036A0005E480078401E814202D101205A4948708C
:1036B000574800785A49097890FBF1F201FB120152
:1036C00057480078401E814202D101205249487279
:1036D0004F4800785349097890FBF1F201FB120141
:1036E00050480078401E814202D101204A49C872E8
:1036F000474800784C49097890FBF1F201FB120130
:1037000049480078401E814202D101204249087395
:103710003F4800784549097890FBF1F201FB12011E
:1037200042480078401E814202D101203A49487344
:1037300037480078401C364908703748007860B137
:103740000020354908704FF4C87364224FF4967115
:1037500000900420FFF727FF15E12F48407890B133
:1037600000202D4948700022114631480068314B35
:1037700093ED001A304BD3ED000A304B93ED000A65
:10378000FFF768FEFFE024488078D8B30020224984
:1037900088700290039004900590294890ED090AE2
:1037A000BDEEC00A10EE100A00B2254991ED080ADC
:1037B000BDEEC00A10EE101A09B2214CCDE900107E
:1037C00094ED070ABDEEC00A10EE104A23B21C4C5D
:1037D00094ED060ABDEEC00A10EE104A22B2184C53
:1037E00094ED050ABDEEC00A10EE104A21B2144C49
:1037F00094ED040ABDEEC00A10EE104A20B2FFF7A5
:103800006AFDC0E01EE000007EC200200000C84249
:103810003E0100203F01002070C200204001002036
:10382000410100204201002043010020440100200A
:10383000FC0000201C0100201801002014010020C1
:10384000E4BF0020FE48407A70B10020FC49487275
:1038500002900390049005900090034602460146B2
:103860000190FFF788FC8EE0F548C07A60B1002037
:10387000F349C87200900190029003460246014647
:103880000390FFF7E4FB7EE0ED48007B50B10020A1
:10389000EB490873EB49098888B24FF4E471FFF7EC
:1038A00089FB70E0E648C078C8B10020E449C870E0
:1038B000E54908789FEDE54ADFEDE43A9FEDE33A0C
:1038C000DFEDE22A9FEDE12ADFEDE01A9FEDDF1A3E
:1038D000DFEDDE0A9FEDDD0AFFF752FA53E0D8482C
:1038E000007918B10020D64908714CE0D4484079DD
:1038F00018B10020D249487145E0D148407BE8B377
:103900000020CF494873D24890ED000ABDEEC00AAE
:10391000D048D0ED000AFDEEE00ACF4890ED001A45
:10392000BDEEC11ACD48D0ED091AFDEEE11ACDED7C
:10393000011A8DED021ACDED030A8DED040A90ED0A
:10394000080ABDEEC00A8DED000A044694ED070A90
:10395000BDEEC00A10EE103AC14C94ED280ABDEE3F
:10396000C00A10EE102A94ED0C0ABDEEC00A10EE4B
:10397000101A94ED1A0ABDEEC00A00E003E010EE42
:10398000100AFFF75BF906B010BD2DE9F0410546BE
:103990000E4600270024AA20B24908704870EF2084
:1039A00088700220C87008460571467100BF05E0A6
:1039B000AC48005D3844C7B2601CC4B2062CF7DBCB
:1039C000A84887710721FFF731F9BDE8F0812DE99B
:1039D000F0412DED048B04460D460026002700BF64
:1039E00004E0E05D3044C6B2781CC7B2681EB8423D
:1039F000F7DC601910F8010CB04203D0BDEC048B69
:103A0000BDE8F0812078AA2802D16078AF2800D0E4
:103A1000F4E7A078012811D12079012801D18F493C
:103A200008702079022802D101208C494870207941
:103A3000032803D10120894908704870A078022822
:103A400010D12079012806D17D49C87008714871CC
:103A50008871C87108722079A02802D101207849A4
:103A6000087000BFA07810287ED12179090209B220
:103A7000627941EA020003F0A8FD41EC190B9FEDC9
:103A80007A0B53EC102B03F007FE41EC180B03F0FC
:103A9000F3FA73498863A179090209B2E27941EA2C
:103AA000020003F092FD41EC190B9FED6F0B53ECFC
:103AB000102B03F0F1FD41EC180B03F0DDFA68491F
:103AC000C863217A090209B2627A41EA020003F06E
:103AD0007CFD41EC190B9FED640B53EC102B03F0B4
:103AE000DBFD41EC180B03F0C7FA5D490864A17ACD
:103AF000090209B2E27A41EA020003F066FD41ECF4
:103B0000190B9FED590B53EC102B03F0C5FD41EC45
:103B1000180B03F0B1FA52490860217B090209B27F
:103B2000627B41EA020003F050FD41EC190B9FED6E
:103B30004E0B53EC102B03F0AFFD41EC180B03F0D0
:103B40009BFA47494860A17B090209B2E27B41EA3E
:103B5000020003F03AFD41EC190B9FED430B53ECCF
:103B6000102B03F099FD00E04BE041EC180B03F043
:103B700083FA3B498860217C090209B2627C41EAF0
:103B8000020003F022FD41EC190B9FED370B53ECC3
:103B9000102B03F081FD41EC180B03F06DFA304956
:103BA0000867A17C090209B2E27C41EA020003F045
:103BB0000CFD41EC190B9FED2C0B53EC102B03F07B
:103BC0006BFD41EC180B03F057FA25494867217D3E
:103BD000090209B2627D41EA020003F0F6FC41EC01
:103BE000190B9FED210B53EC102B03F055FD41EC0D
:103BF000180B03F041FA1A498867A0783146FFF79D
:103C0000C4FEA07811287CD12179090209B2627919
:103C100041EA020003F0D9FC41EC190B9FED120BB5
:103C200053EC102B03F038FD41EC180B03F024FA91
:103C30000F498863A179090209B2E2791AE000000C
:103C400070C20020F8000020680100200000000081
:103C50001C0100201801002014010020E4BF0020F6
:103C6000E4C200207EC20020FCA9F1D24D62503F88
:103C70008CC3002041EA020003F0A7FC41EC190BC1
:103C80001FED070B53EC102B03F006FD41EC180B56
:103C900003F0F2F9B349C863217A090209B2627AE2
:103CA00041EA020003F091FC41EC190B1FED120BED
:103CB00053EC102B03F0F0FC41EC180B03F0DCF993
:103CC000A8490864A17A090209B2E27A41EA02002D
:103CD00003F07BFC41EC190B1FED1D0B53EC102B7B
:103CE00003F0DAFC41EC180B03F0C6F99D490860BB
:103CF000217B090209B2627B41EA020003F065FC04
:103D000000E069E041EC190B1FED290B53EC102B7F
:103D100003F0C2FC41EC180B03F0AEF99149486086
:103D2000A17B090209B2E27B41EA020003F04DFCEB
:103D300041EC190B1FED340B53EC102B03F0ACFCD2
:103D400041EC180B03F098F986498860217C090240
:103D500009B2627C41EA020003F037FC41EC190B26
:103D60001FED3F0B53EC102B03F096FC41EC180BAE
:103D700003F082F97B490867A17C090209B2E27C61
:103D800041EA020003F021FC41EC190B1FED4A0B44
:103D900053EC102B03F080FC41EC180B03F06CF992
:103DA00070494867217D090209B2627D41EA02003B
:103DB00003F00BFC41EC190B1FED550B53EC102BD2
:103DC00003F06AFC41EC180B03F056F9654988676B
:103DD000A0783146FFF7D9FDA07812283FD120798D
:103DE000617941EA002060498871A079E17941EA6E
:103DF00000205D490872A07AE17A41EA00205B491F
:103E00000880207B617B41EA002059490880A07B23
:103E1000000200B2E17B084300EE100AB8EEC00ACF
:103E2000504880ED150A207C000200B2617C0843F6
:103E300000EE100AB8EEC00A4A4880ED070AA07CDE
:103E4000000200B2E17C084300EE100AB8EEC00A9E
:103E5000444880ED230AA0783146FFF796FDA0780C
:103E6000132803D1A0783146FFF78FFDA0781428DE
:103E700003D1A0783146FFF788FDA078152803D13B
:103E8000A0783146FFF781FD00BFB7E510B50446C5
:103E90003848007838B9AA2C05D101203549087076
:103EA000354804705DE033480078012807D1AF2C15
:103EB00005D102202F4908702F48447051E02D4849
:103EC0000078022807D1F12C05DA0320294908706F
:103ED0002948847045E02748007803280CD1322C0B
:103EE0000ADA0420234908702348C4702348047068
:103EF00000202349087034E01E480078042819D1B6
:103F00001E480078002815DD1C480078401E1B491B
:103F100008701B4800781A490978491C184A117022
:103F2000001D15490C5415480078D0B905201149D9
:103F3000087016E00F48007805280FD100200D49C1
:103F400008700F480078001D0B490C540C4800788D
:103F5000401DC1B20848FFF73AFD02E000200549C4
:103F6000087010BD8CC3002034C400206C010020F8
:103F70006E01002047010020B0C200204501002052
:103F8000460100209FED720B734880ED000B9FED02
:103F9000730B744880ED000B9FED730B744880ED3C
:103FA000000B704710B52DED0C8BB0EE408A9FEDE5
:103FB000680B53EC102B6B4890ED000B51EC100B81
:103FC00003F098FA0DD19FED620B53EC102B68486B
:103FD00090ED000B51EC100B03F08CFA01D1FFF7C0
:103FE000D1FF634890ED000B53EC102B90ED000BCC
:103FF00051EC100B03F050FB41EC1C0B594890EDB9
:10400000000B53EC102B90ED000B51EC100B03F058
:1040100043FB41EC1D0B53EC1C2B03F05FF841EC10
:104020001B0B53EC1B2B9FED530B51EC100B03F0B0
:1040300009F941EC1A0BB0EE4A0AF0EE6A0A02F0F6
:10404000AFFBB0EE409AF0EE609A464890ED000B60
:1040500053EC102B51EC190B03F01EFB474A03C223
:1040600018EE100A03F0D8FD41EC1B0B3A4890ED16
:10407000000B53EC102B51EC1B0B03F0E3FC41EC59
:104080001A0B3E4890ED000B53EC102B51EC1A0B21
:1040900003F002FB41EC190B2F4890ED000B53ECA1
:1040A000102B51EC190B03F019F82B4A03C23348BB
:1040B00090ED000B53EC102B9FED2E0B51EC100BE1
:1040C00003F0C0FC41EC1A0BB0EE4A0AF0EE6A0AAB
:1040D00002F066FBB0EE409AF0EE609A214890ED57
:1040E000000B53EC102B51EC190B03F0D5FA1D4AC1
:1040F00003C2224890ED000B53EC102B9FED1D0BDB
:1041000051EC100B03F09EFC41EC1A0BB0EE4A0A86
:10411000F0EE6A0A02F044FBB0EE409AF0EE609ACC
:10412000134890ED000B53EC102B51EC190B03F0DE
:10413000B3FA0F4A03C2084890ED000B51EC100B84
:1041400002F09AFF00EE100ABDEC0C8B10BD0000CF
:104150000000000000000000600100209A99999979
:104160009999B93F500100207B14AE47E17A943F02
:1041700058010020000000000000F03F480100202E
:1041800010B504466FF0040000F098F9E11704EB55
:104190005171C1F3C701394A11701046007800EB24
:1041A0004001C1EBC0104FF6FF7101EAC000344975
:1041B000088010BD0146314A12784A434FF0E0238F
:1041C0005A6100229A611A46126942F001021A618C
:1041D00000BF4FF0E022106900F001021AB100F4B4
:1041E0008032002AF5D04FF0E022126922F001025D
:1041F0004FF0E0231A6100229A6170470146204A7D
:1042000012884A434FF0E0235A6100229A611A460D
:10421000126942F001021A6100BF4FF0E0221069FA
:1042200000F001021AB100F48032002AF5D04FF0FC
:10423000E022126922F001024FF0E0231A6100220D
:104240009A61704770B504464FF4077094FBF0F024
:10425000C6B24FF4077094FBF0F100FB114085B239
:1042600005E04FF40770FFF7C9FF701EC6B2002EBD
:10427000F7D115B12846FFF7C1FF70BD78010020C6
:104280007A010020014600BF704700BF4E4A1288E5
:1042900002F04002002AF9D0C2B24B4B9A8070471C
:1042A00010B588B004460121084600F049FC012100
:1042B000102000F09FFC07220921444800F02DFA4D
:1042C00007220A21414800F028FA4FF4C060069006
:1042D00002208DF81C008DF81D0000208DF81E00B6
:1042E00001208DF81F0006A9384800F08BF90294D0
:1042F0000020ADF80C00ADF80E00ADF81000ADF8E0
:1043000014000C20ADF8120002A92F4800F01DFE89
:1043100001212D4800F0A1FE40212B4800F085FF2F
:10432000012240F22551284800F04DFF25208DF84C
:10433000040003208DF805008DF8060001208DF89B
:10434000070001A800F06DF808B010BD10B540F2EC
:1043500025511D4800F072FF10B31B4800F0ACFE61
:10436000C4B21B48008800F40040C8B9184800884F
:1043700000F4804060B10A2C03D00020144908806A
:1043800020E01348008840F400401149088019E0FB
:104390000D2C06D10E48008840F480400C4908805E
:1043A00010E00B480088C0F30D000A490C5408487F
:1043B0000088401C0649088008460088C72801DD9F
:1043C0000020088010BD00000010014000000240E5
:1043D000800100203EC4002009488047094800476A
:1043E000FEE7FEE7FEE7FEE7FEE7FEE7FEE7FEE7A5
:1043F000FEE7FEE704480549054A064B7047000002
:10440000F90300088901000868C5002068CB002076
:1044100068C7002068C7002032490143324A116052
:10442000704770B5002100230F22C4781CB32E4CB6
:10443000246804F4E064C4F5E064C4F30721C1F126
:104440000404E3B20A4144789C40E1B28478144009
:1044500021430C07210E254C05786155047804F0A2
:104460001F050124AC4005786D11AD0005F1E02574
:10447000C5F8004109E0047804F01F050124AC40B0
:104480001B4D0678761145F8264070BD194A0A4042
:104490000243154B1B1F1A60704739B1124A121D97
:1044A00012680243104B1B1D1A6006E00E4A121DD3
:1044B000126882430C4B1B1D1A607047042808D1F8
:1044C0004FF0E021096941F004014FF0E022116151
:1044D00007E04FF0E021096921F004014FF0E022EC
:1044E000116170470000FA050CED00E000E400E007
:1044F00080E100E080FFFF1F10B504469848844229
:1045000008D10121084600F086FB0021012000F0BF
:1045100082FB76E09348844208D10121022000F01A
:104520007AFB0021022000F076FB6AE08E4884428C
:1045300008D10121042000F06EFB0021042000F0CE
:104540006AFB5EE08948844208D10121082000F01E
:1045500062FB0021082000F05EFB52E084488442A8
:1045600008D10121102000F056FB0021102000F09E
:1045700052FB46E07F48844208D10121202000F010
:104580004AFB0021202000F046FB3AE07A488442B2
:1045900008D10121402000F03EFB0021402000F026
:1045A0003AFB2EE07548844208D10121802000F0BA
:1045B00032FB0021802000F02EFB22E07048844274
:1045C00008D10121801500F026FB0021A01500F084
:1045D00022FB16E06B48844208D10121401500F00F
:1045E0001AFB0021601500F016FB0AE066488442C1
:1045F00007D10121001500F00EFB0021201500F06D
:104600000AFB10BDF0B50A4600210023002400BFBC
:104610003DE0012505FA01F3156805EA03049C4213
:1046200034D105684F000326BE40B54305601579B7
:104630004E00B5400668354305601579012D02D05E
:104640001579022D16D185684F000326BE40B5436B
:10465000856055794E00B54086683543856045686C
:1046600001268E40B5434560456896798E40B6B2C6
:1046700035434560C5684F000326BE40B543C5605D
:10468000D5794E00B540C6683543C560491C102930
:10469000BFD3F0BD4FF6FF71016000210171417180
:1046A0008171C171704708B54FF480320092009A51
:1046B0000A430092009AC261C161009AC261C26954
:1046C0000092C269009208BD0246002013690B40A7
:1046D0000BB1012000E0002070470146086980B25C
:1046E00070470246002053690B400BB1012000E0E7
:1046F000002070470146486980B2704701837047C7
:10470000418370470AB1018300E0418370474161F2
:10471000704742694A4042617047F0B50023002467
:104720004D07ED0E02FA05F3CE1000F1200555F805
:1047300026504E07F70E0F26BE40B543CF1000F1AE
:10474000200646F82750CE1000F1200555F82650D7
:1047500045EA0304CE1000F1200545F82640F0BDDF
:10476000000002400004024000080240000C024029
:10477000001002400014024000180240001C0240D9
:10478000002002400024024000280240F94800684E
:1047900040F00100F74908600020F6490831086040
:1047A000F4480068F4490840F2490860F348091DDC
:1047B0000860F348EF4984310860F0481038091D5B
:1047C0000860EC48006820F48020EA490860002076
:1047D000E8490C310860E7498C31086070470021D6
:1047E000E44A921C117011460870704710B50146DA
:1047F0000022002300204A11012A02D1DD4C236847
:1048000008E0022A03D1DB4C7034236802E0D94C63
:104810007434236801F01F02012494401C400CB141
:10482000012000E0002010BD38B5002000900024D9
:10483000002500BF3120FFF7D9FF05460098401C36
:1048400000900098B0F5A04F01D0002DF2D031209B
:10485000FFF7CCFF08B1012400E00024204638BD5A
:1048600001460020C34A106820F0F80040EAC10069
:1048700010607047C349086070470021BD4A70321C
:1048800011701170012802D004280AD104E001211E
:10489000B84A7032117005E00521B64A70321170C5
:1048A00000E000BF00BF7047B7490860704770B5AF
:1048B000049C41EA82150126C6EB530645EA0645EB
:1048C000054345EA0465AB4E361D356070BDAD4904
:1048D00008667047820142EA0172A64B84331A606F
:1048E0007047A8498866704710B5830143EA0163A1
:1048F00043EA02739F4C8834236010BDA1490867C6
:104900007047A049C864704702460020994B08339D
:10491000186820F0EC6042EA01031843954B083315
:104920001860704702460020924B0833186820F048
:10493000784042EA010318438E4B083318607047F1
:10494000014600208B4A0832106820F0030008431B
:104950001060704787480830006800F00C0070470E
:1049600001460020834A0832106820F0F000084316
:1049700010607047014600207E4A0832106820F41B
:10498000E05008431060704701460020794A083221
:10499000106820F4604040EAC10010607047F0B534
:1049A000002100220024022500260223714F08372F
:1049B0003F6807F00C0121B1042905D0082937D13F
:1049C00005E0724F076036E0714F076033E0694FD2
:1049D0003F1D3F68C7F38056664F3F1D3F6807F095
:1049E0003F036EB16A4FB7FBF3F7DFF888C10CF1F4
:1049F000040CDCF800C0CCF3881C07FB0CF40CE0C2
:104A0000624FB7FBF3F7DFF86CC10CF1040CDCF874
:104A100000C0CCF3881C07FB0CF4564F3F1D3F68C9
:104A2000C7F301477F1C7D00B4FBF5F7076002E088
:104A3000564F076000BF00BF4E4F08373F6807F072
:104A4000F0010909534F7A5C0768D7404760494F26
:104A500008373F6807F4E051890A4E4F7A5C47688F
:104A6000D7408760434F08373F6807F46041490BE0
:104A7000484F7A5C4768D740C760F0BD002100F41A
:104A80004072B2F5407F0AD13A4A0832116821F4E7
:104A9000F811414A02401143364A08321160354A42
:104AA00070321268C0F30B031A43324B70331A6032
:104AB00070473549443908607047334940390860C8
:104AC000704736490860704701460020294A8C32F9
:104AD000106820F01F004A1E1043264A8C321060D6
:104AE000704701460020234A8C32106820F4F850A9
:104AF0004A1E40EA02201F4A8C321060704701466D
:104B000000201C4A8C32106820F4401008431060CA
:104B1000704701460020174A8C32106820F440008C
:104B200008431060704701460020124A8C3210681A
:104B300020F44030084310607047194908607047FE
:104B400039B10C4A3032126802430A4B30331A60D2
:104B500006E0084A303212688243064B30331A604E
:104B60007047F9B1034A343212680243014B3433BF
:104B70001A601CE000380240FFFFF6EA1030002403
:104B80000030002000004742800E47420024F4001D
:104B900000127A0082010020FFFCFF0F5C014742F7
:104BA000E01147428F4A126882438E4B1A60704769
:104BB00039B18C4A121D126802438A4B1B1D1A60C0
:104BC00006E0884A121D12688243864B1B1D1A603C
:104BD000704739B1834A0C3212680243814B0C335F
:104BE0001A6006E07F4A0C32126882437D4B0C3318
:104BF0001A60704739B17B4A103212680243794B10
:104C000010331A6006E0774A103212688243754BFF
:104C100010331A60704739B1724A243A126802435D
:104C2000704B243B1A6006E06E4A243A12688243B5
:104C30006C4B243B1A60704739B16A4A203A1268BB
:104C40000243684B203B1A6006E0664A203A12682D
:104C50008243644B203B1A60704739B1614A1C3A69
:104C6000126802435F4B1C3B1A6006E05D4A1C3A27
:104C7000126882435B4B1C3B1A60704739B1594A3A
:104C8000143A12680243574B143B1A6006E0554A27
:104C9000143A12688243534B143B1A60704739B17F
:104CA000504A103A126802434E4B103B1A6006E01D
:104CB0004C4A103A126882434A4B103B1A607047C4
:104CC00039B1484A1C3212680243464B1C331A6001
:104CD00006E0444A1C3212688243424B1C331A607D
:104CE000704739B13F4A2032126802433D4B2033AE
:104CF0001A6006E03B4A203212688243394B203367
:104D00001A60704739B1374A243212680243354B72
:104D100024331A6006E0334A243212688243314B4E
:104D200024331A60704739B12E4A2C32126802437C
:104D30002C4B2C331A6006E02A4A2C32126882432C
:104D4000284B2C331A60704739B1264A303212682A
:104D50000243244B30331A6006E0224A3032126894
:104D60008243204B30331A607047012808D11D4917
:104D70003C31096841F008011A4A3C32116007E0F1
:104D800018493C31096821F00801164A3C3211608B
:104D9000704739B1134A273A12780243114B273B27
:104DA0001A7006E00F4A273A127882430D4B273BD0
:104DB0001A7070470B484030006840F08070094915
:104DC00040310860704701460020064A283A1268C0
:104DD0000A400AB1012000E000207047014926394D
:104DE000087070473438024010B501218803FFF77E
:104DF00056FF00214FF48040FFF751FF10BD1C49C2
:104E0000086070471B490862704730B500228B0765
:104E10001C0F0F2303FA04F2154B08338C1053F8C0
:104E200024309343124C08348D1044F82530234627
:104E30008C1053F824308C07240F00FA04F4234319
:104E40000B4C08348D1044F8253030BD0949DC3155
:104E50000860704708490860704700200449203105
:104E6000096801F4807109B1012000E00020704759
:104E700000380140000027420004274210B50446D4
:104E8000FA48844208D101211020FFF708FF0021D1
:104E90001020FFF704FF57E0F548844209D10121B3
:104EA0004804FFF7EBFE00214FF40030FFF7E6FE69
:104EB0004AE0F048844209D101218804FFF7DEFE70
:104EC00000214FF48020FFF7D9FE3DE0EA488442FC
:104ED00009D10121C804FFF7D1FE00214FF40020C1
:104EE000FFF7CCFE30E0E548844209D101210805F6
:104EF000FFF7C4FE00214FF48010FFF7BFFE23E050
:104F0000DF48844208D101212020FFF7C8FE00219C
:104F10002020FFF7C4FE17E0DA48844209D10121BE
:104F20008807FFF7ABFE00214FF08040FFF7A6FE99
:104F30000AE0D548844207D101214005FFF79EFED3
:104F400000216005FFF79AFE10BD2DE9FF470546D9
:104F50000E460024A14600BFA046B08900B100BFA4
:104F60002C8A24F44054F08804432C82AC8941F20A
:104F70000C608443B0883189084371890843044335
:104F8000AC81AC8A24F44074B0890443AC82684696
:104F9000FFF705FDB548854202D0B948854202D1E8
:104FA000DDF80C9001E0DDF80890A88900F40040DD
:104FB00040B109EBC90000EB091031684900B0FBB2
:104FC000F1F707E009EBC90000EB0910316889002F
:104FD000B0FBF1F76420B7FBF0F004012009642175
:104FE00001FB1078A88900F4004040B1322000EBAA
:104FF000C800B0FBF1F000F00700044308E03220E5
:1050000000EB08106421B0FBF1F000F00F00044346
:105010002C81BDE8FF874FF416510160002181808B
:10502000C18001810C21418100218181704710B52F
:1050300002460020108A20F470600B884C882343BD
:105040008C882343CC8823431843108210BD002151
:10505000018041808180C180704721B1828942F402
:105060000052828104E082894DF6FF731A408281EA
:105070007047028B02F47F420283028B0A43028351
:10508000704721B1828942F40042828103E0828923
:10509000C2F30E028281704721B1828A42F400621B
:1050A000828204E0828A4FF2FF731A408282704744
:1050B000C1F308028280704701468888C0F3080067
:1050C0007047028A4FF6F0731A400282028A0A433E
:1050D0000282704721B1828942F00202828104E09B
:1050E00082894FF6FD731A408281704782894FF2A0
:1050F000FF731A40828182890A4382817047028A43
:105100004FF6DF731A400282028A0A430282704716
:1051100021B1028A42F48042028204E0028A4BF604
:10512000FF731A4002827047818941F00101818139
:10513000704721B1828A42F00802828204E0828AAA
:105140004FF6F7731A4082827047028BD2B2028305
:10515000028B42EA01220283704721B1828A42F027
:105160002002828204E0828A4FF6DF731A40828234
:10517000704721B1828A42F01002828204E0828A62
:105180004FF6EF731A4082827047828A4FF6FB73A4
:105190001A408282828A0A438282704721B1828ABF
:1051A00042F00202828204E0828A4FF6FD731A40C6
:1051B000828270471AB1838A0B43838202E0838A1A
:1051C0008B4383827047F0B50346002400260025F8
:1051D000002040F66A17B94200D100BF1846C1F35B
:1051E000421401F01F06012707FA06F5012C01D130
:1051F0000C3004E0022C01D1103000E014301AB160
:1052000007682F43076002E00768AF430760F0BDFF
:1052100002460020B1F5007F00D100BF13880B408B
:105220000BB1012000E00020704701F40072B2F5DC
:10523000007F00D100BFCA430280704770B50246AC
:10524000002400230025002040F66A16B14200D158
:1052500000BFC1F3421501F01F03012606FA03F354
:10526000012D13D19689334017E000000010014052
:105270000044004000480040004C00400050004006
:105280000014014000780040007C0040022D02D153
:10529000168A334001E0968A33400C12012606FA42
:1052A00004F41688344013B10CB1012000E0002052
:1052B00070BD10B50022002340F66A14A14200D14F
:1052C00000BF0A1201249440A3B2DC43048010BD45
:1052D000002061490860C8601F2048610020886183
:1052E000C86108624862704700215B4A126844F254
:1052F00001039A43584B1A601A46116840F6F2723D
:105300009143028843881A4383881A43C3881A4307
:1053100003891A4343891A4383891A4311434E4A26
:10532000116070470021018041808180C18001812E
:105330004181818170474188028841EA0241464AA1
:105340001162C188828841EA0241434A5162704732
:1053500030B14149096841F004013F4A116005E05C
:105360003D49096821F004013B4A1160704701780A
:10537000427841EA0221827841EA0241C27841EA58
:105380000261354A9161704730B13349096841F093
:105390000801314A116005E02F49096821F0080130
:1053A0002D4A1160704730B12B49096841F48041A2
:1053B000294A116005E02849096821F48041264AFC
:1053C0001160704730B12449096841F00101224A57
:1053D000116005E02049096821F001011E4A1160B1
:1053E00070471D48806A704729B11B4AD268024342
:1053F000194BDA6006E0184AD268C3439BB21A40E0
:10540000154BDA60704710B50146002000230A13DF
:1054100012B9114CA36806E0022A02D10E4C63684F
:1054200001E00D4C236903EA01040CB1012000E006
:10543000002010BD08494861704701460020002245
:10544000054B1B6903EA01020AB1012000E00020BC
:10545000704701494861704700000550016821F01C
:10546000010101600021016041608160C160016152
:1054700021214161DB49884204D13D21D94A103ABA
:1054800091608CE0D7491831884205D14FF474619E
:10549000D44A103A916082E0D2493031884205D135
:1054A0004FF47411CF4A103A916078E0CD494831F9
:1054B000884205D14FF07461CA4A103A91606EE09B
:1054C000C8496031884204D1C749C64A103AD16000
:1054D00065E0C4497831884204D1C449C14A103AD0
:1054E000D1605CE0BF499031884204D1C049BD4AD7
:1054F000103AD16053E0BB49A831884205D14FF042
:105500003D51B84A103AD16049E0BA49884204D1C5
:105510003D21B84A083A116041E0B6491831884245
:1055200005D14FF47461B34A083A116037E0B149CC
:105530003031884205D14FF47411AE4A083A1160F7
:105540002DE0AC494831884205D14FF07461A94A39
:10555000083A116023E0A7496031884204D1A2498A
:10556000A44A121F11601AE0A2497831884204D17E
:105570009E49A04A121F116011E09E499031884255
:1055800004D19B499B4A121F116008E09949A83138
:10559000884204D14FF03D51964A121F1160704766
:1055A00010B500220268944B1A40CC680B68234364
:1055B0004C6923438C692343CC6923430C6A2343FE
:1055C0004C6A23438C6A23434C6B23438C6B2343E9
:1055D0001A430260426922F00702D1E90B342343E7
:1055E0001A4342610B6943604B6883608B68C360F8
:1055F00010BD0021016041608160C16001614161B5
:105600008161C161016241628162C1620163416382
:105610008163704721B1026842F00102026003E039
:10562000026822F001020260704721B1026842F470
:105630000042026003E0026822F400420260704708
:1056400021B1026842F02002026003E0026822F009
:10565000200202607047416070470146486880B28E
:10566000704722B1036843F40023036003E003683A
:1056700023F4002303600161704721B1026842F402
:105680008022026003E0026822F4802202607047F8
:105690000AB1016100E0C1607047014600200A685C
:1056A00002F400220AB1012000E000207047014608
:1056B00000200A6802F001020AB1012000E0002087
:1056C0007047014600204A6902F03800704730B543
:1056D00003460A4600200024464DAB4202D241490F
:1056E000103901E04349103902F000550DB14C6802
:1056F00000E00C68414D2C4004EA02050DB1012088
:1057000000E0002030BD02463A4B9A4202D23548B2
:10571000103801E03748103801F000531BB1374B07
:105720000B40C36002E0354B0B408360704710B5FF
:1057300001F080034BB122B1436943F08003436120
:1057400003E0436923F08003436180290BD02AB131
:10575000036801F01E042343036004E0036801F0C2
:105760001E04A343036010BD70B502460020002450
:105770000025204EB24202D21A4B103B01E01D4BD5
:10578000103B1F4E0E4036B11E2606EAD124166885
:1057900006EA040502E0566906F0800501F00056AD
:1057A0000EB15C6800E01C68144E344004EA010647
:1057B00016B10DB1012000E0002070BD02460D4B76
:1057C0009A4202D20748103801E00A48103801F026
:1057D00000531BB1094B0B40C36002E0074B0B4069
:1057E00083607047106002403D000020400F0020A1
:1057F00000003D20106402403F801CF07D0F7D0FB3
:105800003C0F3C0F002041490860091D0860091D3C
:105810000860091D08603E483C4914310860704723
:1058200000213A498279002A3AD00A461268036870
:105830009A430B461A600A1D126803689A430B1DAF
:105840001A60027911440A6803681A430A602F4AF1
:105850000832126803689A432C4B08331A601A1DE9
:10586000126803689A43294B0C331A604279102A54
:105870000ED11A1F126803681A43244B08331A60AA
:105880001A1D126803681A43204B0C331A600DE08E
:105890001E49427911440A6803681A430A6005E008
:1058A000027911440A6803689A430A60704700212C
:1058B000016001710C214171002181717047134910
:1058C000103109680143114A1032116070470146D6
:1058D00000200E4A143212680A400AB1012000E08A
:1058E00000207047094914310860704701460020C4
:1058F000064A143212680A400AB1012000E0002072
:10590000704702491431086070470000003C0140B4
:10591000FFFF7F0010B50446FE48844208D10121F4
:105920000846FFF7BCF900210120FFF7B8F99DE018
:10593000B4F1804F08D101210846FFF79FF90021FB
:105940000120FFF79BF991E0F348844208D101213F
:105950000220FFF793F900210220FFF78FF985E07D
:10596000EE48844208D101210420FFF787F9002185
:105970000420FFF783F979E0E948844208D1012146
:105980000820FFF77BF900210820FFF777F96DE089
:10599000E448844208D101211020FFF76FF900216B
:1059A0001020FFF76BF961E0DF48844208D1012144
:1059B0002020FFF763F900212020FFF75FF955E071
:1059C000DA48844208D101210220FFF768F900215A
:1059D0000220FFF764F949E0D548844209D101214A
:1059E0000804FFF75CF900214FF48030FFF757F906
:1059F0003CE0D048844209D101214804FFF74FF927
:105A000000214FF40030FFF74AF92FE0CA488442E2
:105A100009D101218804FFF742F900214FF48020C9
:105A2000FFF73DF922E0C548844208D1012140201A
:105A3000FFF724F900214020FFF720F916E0C048C5
:105A4000844208D101218020FFF718F9002180202D
:105A5000FFF714F90AE0BB48844207D10121801501
:105A6000FFF70CF90021A015FFF708F910BD00227F
:105A70000288A84B98420ED0AC4B98420BD0B0F1A4
:105A8000804F08D0A44B984205D0A44B984202D036
:105A9000A34B984204D14FF68F731A404B881A4398
:105AA000A04B984207D0A04B984204D04FF6FF433A
:105AB0001A400B891A4302804B68C3620B88038526
:105AC000944B984202D0994B984201D18B7A03862D
:105AD0000123838270474FF0FF3141600021018034
